:100000000C9434000C94A9000C9451000C945100F1
:100010000C9451000C9451000C9451000C9451001C
:100020000C9451000C9451000C9451000C9451000C
:100030000C9451000C9451000C9451000C945100FC
:100040000C9451000C9451000C9479000C945100C4
:100050000C9451000C9451000C9451000C945100DC
:100060000C9451000C94510011241FBECFEFD8E026
:10007000DEBFCDBF11E0A0E0B1E0ECEDF1E002C0E9
:1000800005900D92A030B107D9F711E0A0E0B1E0E2
:1000900001C01D92A130B107E1F70E94D3000C947A
:1000A000EC000C94000020EA3FE004C0F901319715
:1000B000F1F701970097D1F7089581E084B985B9E8
:1000C000589A08950895089548990BC08AE090E0E1
:1000D0000E94530081E090E0489B05C080E090E0E2
:1000E000089580E090E0089585B191E0892785B971
:1000F00008951F920F920FB60F9211242F933F93E2
:100100004F935F936F937F938F939F93AF93BF931F
:10011000EF93FF930E947400E6ECF0E080818093FF
:100120000001808382E390E00E9453000E947400EB
:10013000FF91EF91BF91AF919F918F917F916F91BF
:100140005F914F913F912F910F900FBE0F901F9095
:1001500018951F920F920FB60F9211242F933F9371
:100160004F935F936F937F938F939F93AF93BF93BF
:10017000EF93FF930E94740082E390E00E9453008B
:100180000E947400FF91EF91BF91AF919F918F9169
:100190007F916F915F914F913F912F910F900FBE83
:1001A0000F901F9018950E945D0087E690E0909355
:1001B000C5008093C40088E98093C10086E08093E5
:1001C000C20081E68093C6008091690081608093BF
:0C01D0006900E89A7894FFCFF894FFCF04
:00000001FF
